:100000000C9462000C948A000C948A000C948A0070
:100010000C948A000C948A000C948A000C948A0038
:100020000C948A000C948A000C948A000C948A0028
:100030000C948A000C948A000C948A000C948A0018
:100040000C94F6140C948A000C948A000C948A0088
:100050000C948A000C948A000C948A000C948A00F8
:100060000C948A000C948A00000000080002010031
:100070000003040700000000000000000102040863
:100080001020408001020408102001020408102002
:10009000040404040404040402020202020203032E
:1000A00003030303000000002300260029000000D2
:1000B0000000250028002B0000000000240027007D
:1000C0002A00340811241FBECFEFD4E0DEBFCDBF1D
:1000D00012E0A0E0B1E0E4EEF1E302C005900D9281
:1000E000AE3BB107D9F723E0AEEBB2E001C01D9201
:1000F000A338B207E1F710E0C4ECD0E004C02297C7
:10010000FE010E946218C23CD107C9F70E94041880
:100110000C94F0180C94000040E060E070E082E283
:1001200093E00E94EA1145E050E060E070E082E276
:1001300093E00E940F1260E070E082E293E00E9480
:10014000211220E042E060E18AE093E00E94F8138F
:1001500048E051E060E08AE093E00E94B61462E07B
:100160008EE00E94FA1562E08FE00E94FA1562E0CC
:1001700080E10E94FA1562E081E10E94FA1562E0D6
:1001800082E10C94FA158091FD02882331F08AE017
:1001900093E00E94D7131092FD0240E060E08AE0F5
:1001A00093E00E94DE1368E871E08AE093E00E9429
:1001B0000F1767E971E08AE093E00E940F176091E2
:1001C000D6027091D7024AE050E08AE093E00E94A4
:1001D000BB176FE871E08AE093E00E940F1760910F
:1001E000D2027091D3024AE050E08AE093E00E948C
:1001F000BB1761E971E08AE093E00E940F1782E18A
:100200000E946916892B91F41092F40281E090E02B
:100210009093F3028093F20282E10E946916892B87
:1002200029F48AE093E00E94D713F6CF08950F9344
:100230001F93CF93DF938091E4029091E502909316
:10024000E1028093E0028091E2029091E3029093B8
:10025000DF028093DE022091E8023091E9023093C0
:10026000E5022093E4028091E6029091E7029093E8
:10027000E3028093E2024091EC025091ED02509330
:10028000EB024093EA0257FF10C0009721F4BA0135
:100290006250710906C08730910539F4BA016E5F6A
:1002A0007F4F7093ED026093EC026091EC027091CD
:1002B000ED021616170674F4009719F44E5F5F4F9F
:1002C00005C08730910531F4425051095093ED0239
:1002D0004093EC024091EC025091ED022630310542
:1002E00009F0A9C06091CE027091CF02681779071A
:1002F00091F54F3F5F4F31F441E050E05093ED02F4
:100300004093EC024091EC025091ED024E3F5F4F62
:1003100031F441E050E05093ED024093EC02409103
:10032000EC025091ED024D3F5F4F31F442E050E05E
:100330005093ED024093EC026730710519F441E0EF
:1003400050E005C06115710531F443E050E0509371
:10035000ED024093EC02A091C602B091C702A33017
:10036000B10554F4AB014A0F5B1F415051094817C6
:10037000590709F00CC12CC04091EC025091ED02DC
:10038000E1E0F0E0ED012197EC17FD07E4F48F01C7
:10039000060F171F80179107A1F44F3F1FEF51075A
:1003A00019F441E050E00DC04E3F1FEF510719F422
:1003B00042E050E006C04D3F1FEF510711F443E00B
:1003C00050E03196E1CF5093ED024093EC02CACF5A
:1003D0006091EC027091ED026F3F7F4F31F462E06B
:1003E00070E07093ED026093EC026091EC0270910A
:1003F000ED026E3F7F4F31F463E070E07093ED02E9
:100400006093EC026091EC027091ED026D3F7F4FC2
:1004100031F463E070E07093ED026093EC024730DA
:10042000510519F441E050E0AEC0452B09F0AFC0D2
:1004300043E050E0A8C02130310509F0A8C0609128
:10044000CA027091CB026817790791F541305105C6
:1004500031F44FEF5FEF5093ED024093EC02409187
:10046000EC025091ED024230510531F44FEF5FEF55
:100470005093ED024093EC024091EC025091ED025A
:100480004330510531F44EEF5FEF5093ED0240934E
:10049000EC026730710519F44FEF5FEF05C061158D
:1004A000710531F44DEF5FEF5093ED024093EC0294
:1004B000A091C402B091C502A330B10554F4AB01C0
:1004C0004A0F5B1F415051094817590709F05FC097
:1004D00029C04091EC025091ED02E1E0F0E0ED0125
:1004E0002197EC17FD07CCF48F01060F171F80171B
:1004F000910789F44130510519F44FEF5FEF0BC0BC
:100500004230510519F44EEF5FEF05C043305105FD
:1005100011F44DEF5FEF3196E4CF5093ED0240932D
:10052000EC02CDCF6091EC027091ED02613071056B
:1005300031F46EEF7FEF7093ED026093EC02609107
:10054000EC027091ED026230710531F46DEF7FEFD6
:100550007093ED026093EC026091EC027091ED02F9
:100560006330710531F46DEF7FEF7093ED026093AE
:10057000EC024730510519F44FEF5FEF04C0452BF3
:1005800031F44DEF5FEF5093ED024093EC02409158
:10059000EC025091ED024130510579F4B9016150FE
:1005A00071097093E9026093E802BC01615071091E
:1005B0007093E7026093E6022CC04230510541F48B
:1005C000B901615071097093E9026093E80221C09A
:1005D0004330510579F4B901615071097093E90212
:1005E0006093E802BC016F5F7F4F7093E7026093F6
:1005F000E6021AC04115510591F04F3F1FEF510718
:1006000041F42F5F3F4F3093E9022093E8020197B6
:1006100015C04E3F6FEF560739F42F5F3F4F3093B1
:10062000E9022093E8020AC04D3F5F4F59F42F5F63
:100630003F4F3093E9022093E80201969093E7023E
:100640008093E602DF91CF911F910F9108950F9350
:10065000CF93DF93C091CE02D091CF028091CE0292
:100660009091CF022091C6023091C702820F931F52
:10067000C817D90764F401E09E0147E050E060E04C
:1006800070E082E293E00E94E6122196E7CFC091EB
:10069000CA02D091CB028091CA029091CB022091E4
:1006A000C4023091C502820F931FC817D90764F4A2
:1006B00001E09E0140E050E060E070E082E293E003
:1006C0000E94E6122196E7CFDF91CF910F91089516
:1006D0000E9427038091CE029091CF029093CD0289
:1006E0008093CC028091CA029091CB029093C90270
:1006F0008093C8028091C3028823B1F18EE00E94EA
:100700006916892B91F48091CE029091CF02181630
:1007100019065CF48091CC029091CD0201979093E0
:10072000CF028093CE021092C3028FE00E9469161E
:10073000892BD1F488E090E02091C6023091C70265
:10074000821B930B2091CE023091CF0228173907DC
:100750005CF48091CC029091CD0201969093CF02EF
:100760008093CE021092C3028091C2028823B1F11D
:1007700080E10E946916892B91F48091CA029091C0
:10078000CB02181619065CF48091C8029091C90238
:1007900001979093CB028093CA021092C20281E12A
:1007A0000E946916892BD1F488E090E02091C40260
:1007B0003091C502821B930B2091CA023091CB026B
:1007C000281739075CF48091C8029091C9020196FC
:1007D0009093CB028093CA021092C2028EE00E94D4
:1007E0006916019741F48FE00E946916019719F488
:1007F00081E08093C3028091F9029091FA02892BE3
:1008000069F480E10E946916019741F481E10E9438
:100810006916019719F481E08093C20208950F933D
:100820008091D8029091D90202977CF02091DE024B
:100830003091DF024091E0025091E10201E060E07E
:1008400070E082E293E00E94E6128091D8029091DB
:10085000D902181619067CF42091E2023091E302C5
:100860004091E4025091E50201E060E070E082E234
:1008700093E00E94E6122091E6023091E702409157
:10088000E8025091E90201E060E070E082E293E06A
:100890000E94E6120F9108950E9468032091F002D1
:1008A0003091F1028091DC029091DD022817390726
:1008B00081F460E070E082E293E00E9421120E94E5
:1008C00027030E9417011092F1021092F0020E9479
:1008D0000F048091F0029091F1029093EF028093C7
:1008E000EE020E940F0463E070E080E090E00E945E
:1008F00063158091EE029091EF0201969093F102C0
:100900008093F0028091DC029091DD022091FB0245
:100910003091FC022817390731F00A9724F48AE055
:1009200093E00C94D7130895CF93DF938091D60270
:100930009091D7029093D5028093D4022091D20255
:100940003091D3023093D1022093D0022091E8025B
:100950003091E902232B09F04DC001969093D70204
:100960008093D60268EE73E080E090E00E94631509
:1009700082E090E09093ED028093EC0286E090E0BC
:100980009093E9028093E80287E090E02091C6020C
:100990003091C702821B930B97FD01969595879521
:1009A0009C012E5F3F4F3093E7022093E60246E022
:1009B00050E05093E5024093E4023093E302209329
:1009C000E20201969093CF028093CE0287E090E0FE
:1009D0002091C4023091C502821B930B97FD0196B2
:1009E0009595879501969093CB028093CA0281E0FA
:1009F0008093FD02C091E802D091E902C730D10591
:100A000009F055C02091D0023091D1022F5F3F4FA5
:100A10003093D3022093D20268EE73E080E090E03E
:100A20000E9463158EEF9FEF9093ED028093EC028E
:100A300081E090E09093E9028093E8028091C40203
:100A40009091C5029E01281B390BC90137FD019603
:100A5000AC0155954795CA0102969093E7028093A1
:100A6000E60221E030E03093E5022093E402909327
:100A7000E3028093E20287E090E02091C602309189
:100A8000C702821B930B97FD01969C013595279514
:100A90002F5F3F4F3093CF022093CE024F5F5F4FC7
:100AA0005093CB024093CA0281E08093FD02809173
:100AB000FD028823C1F18AE093E00E94D71340E051
:100AC00060E08AE093E00E94DE1365E971E08AE06D
:100AD00093E00E940F176091D6027091D7024AE00E
:100AE00050E08AE093E00E94BB176BE971E08AE076
:100AF00093E00E940F176091D2027091D3024AE0F6
:100B000050E08AE093E00E94BB1761E971E08AE05F
:100B100093E00E940F1768EE73E080E090E00E947F
:100B200063151092FD028091D6029091D70203972F
:100B300021F58AE093E00E94D7136FE971E08AE023
:100B400093E00E940F1768EE73E080E090E00E944F
:100B500063151092FA021092F9021092F8021092A4
:100B6000F7021092090310920803109207031092E3
:100B7000060310920503109204038091D202909113
:100B8000D302039721F58AE093E00E94D71368EA25
:100B900071E08AE093E00E940F1768EE73E080E056
:100BA00090E00E9463151092FA021092F9021092DE
:100BB000F8021092F70210920903109208031092A3
:100BC0000703109206031092050310920403DF91AD
:100BD000CF9108950E94680382E10E946916892BD3
:100BE00051F481E08093F4028093FD0282E10E943F
:100BF0006916892BD9F38091F402882319F00E9499
:100C0000C300F9CF0E9494048091F2029091F30204
:100C1000019781F540E060E08AE093E00E94DE13F6
:100C200065E971E08AE093E00E940F176091D602B7
:100C30007091D7024AE050E08AE093E00E94BB172F
:100C40006BE971E08AE093E00E940F176091D20295
:100C50007091D3024AE050E08AE093E00E94BB1713
:100C600061E971E08AE093E00E940F171092F302AD
:100C70001092F2022091F0023091F1028091DC0298
:100C80009091DD022817390741F40E9417010E9454
:100C900094041092F1021092F0020E940F0463E09B
:100CA00070E080E090E00E9463158091F0029091E6
:100CB000F10201969093F1028093F00260E070E0FF
:100CC00082E293E00C942112CF93DF938091F5029E
:100CD0009091F602892B09F076C02091F0023091B4
:100CE000F1028091DC029091DD022817390771F53D
:100CF000C091E602D091E70289E090E02091C40221
:100D00003091C502821B930BC817D907FCF4C2307F
:100D1000D105E4F08091E8029091E9020597B4F4DE
:100D20008091CA029091CB028C179D0779F021E047
:100D300030E040E050E06FEF7FEFCB010E94E7171B
:100D40006C0F7D1F7093CB026093CA028091BE022C
:100D50008823C9F12091F0023091F1028091DC02E8
:100D60009091DD022817390771F5C091E602D09104
:100D7000E70289E090E02091C6023091C702821B11
:100D8000930BC817D907FCF4C230D105E4F0809169
:100D9000E8029091E9020597B4F48091CE02909117
:100DA000CF028C179D0779F021E030E040E050E061
:100DB0006FEF7FEFCB010E94E7176C0F7D1F7093E1
:100DC000CF026093CE028091F5029091F6020197D6
:100DD00009F06AC02091F0023091F1028091DC02AA
:100DE0009091DD022817390741F5C091E602D091B4
:100DF000E70289E090E02091C4023091C502821B95
:100E0000930BC817D907CCF4C230D105B4F0809148
:100E1000CA029091CB028C179D0779F021E030E057
:100E200040E050E06FEF7FEFCB010E94E7176C0FBF
:100E30007D1F7093CB026093CA028091BE0288230B
:100E400099F12091F0023091F1028091DC029091B1
:100E5000DD022817390741F5C091E602D091E7027B
:100E600089E090E02091C6023091C702821B930B6B
:100E7000C817D907CCF4C230D105B4F08091CE02A6
:100E80009091CF028C179D0779F021E030E040E08F
:100E900050E06FEF7FEFCB010E94E7176C0F7D1FD3
:100EA0007093CF026093CE028091F5029091F6028A
:100EB0008230910509F04DC06091F0027091F1020D
:100EC0004091DC025091DD0264177507F1F48091C6
:100ED000E6029091E70229E030E0E091C402F0914F
:100EE000C5022E1B3F0B821793077CF482309105BD
:100EF00064F02091CA023091CB022817390729F0FB
:100F000001979093CB028093CA028091BE028823FE
:100F100009F447C06417750709F043C08091E602E1
:100F20009091E70229E030E04091C6025091C7025B
:100F3000241B350B82179307A4F5823091058CF1A1
:100F40002091CE023091CF022817390751F1019735
:100F500024C0039731F58091E6029091E70229E0E1
:100F600030E04091C4025091C502241B350B82171A
:100F7000930724F49093CB028093CA022091BE027F
:100F8000222379F029E030E04091C6025091C70257
:100F9000241B350B8217930724F49093CF02809380
:100FA000CE02DF91CF910C94EA05AF92BF92CF921F
:100FB000DF92EF92FF920F931F93CF93DF93CDB702
:100FC000DEB764970FB6F894DEBF0FBECDBF84E1E5
:100FD000E4E7F1E0DE01119601900D928A95E1F7C8
:100FE00000E010E0FE0131966F01E12CF12CC80108
:100FF0008C589E4F5C01F60121916F01F501EE0DB9
:10100000FF1DB8974081518160E070E082E293E07B
:101010000E942513F2E0EF0EF11C88E2E816F104BD
:1010200051F762E370E080E090E00E94631560E0B9
:1010300070E082E293E00E94211202501109023C0A
:101040009FEF190779F664960FB6F894DEBF0FBECE
:10105000CDBFDF91CF911F910F91FF90EF90DF9067
:10106000CF90BF90AF900895CF92EF920F931F93C0
:1010700001E010E029E030E04AE050E068E070E094
:1010800082E293E00E94571242E0C42E53E0E52E24
:1010900004E025E046E067E08AE093E00E949614D1
:1010A00082E090E00E94D21890E09093DD0280935D
:1010B000DC0281E090E00E94D21890E09093D90287
:1010C0008093D8021F910F91EF90CF900895CF9306
:1010D000DF932091020330910303809108039091E4
:1010E00009032817390721F08AE093E00E94D713FB
:1010F00040E060E08AE093E00E94DE1360E08AE076
:1011000093E00E94F0148091080390910903892BC9
:10111000C1F440E061E08AE093E00E94DE1361EBFD
:1011200071E08AE093E00E940F1741E060E08AE0FE
:1011300093E00E94DE136AEB71E08AE093E00E9484
:101140000F1780910803909109030197C1F440E0C3
:1011500061E08AE093E00E94DE136AEB71E08AE0CE
:1011600093E00E940F1741E060E08AE093E00E9464
:10117000DE1364EC71E08AE093E00E940F17809127
:10118000080390910903029761F440E061E08AE06E
:1011900093E00E94DE1364EC71E08AE093E00E9429
:1011A0000F17809108039091090390930303809394
:1011B00002038091060190910701909305018093AD
:1011C00004018EE00E946916892B51F4809102037C
:1011D0009091030301979093090380930803F1CF43
:1011E0008FE00E946916892B51F48091020390913F
:1011F000030301969093090380930803F1CF80E1E4
:101200000E946916892BD9F3CFEFDFEF81E10E94AD
:101210006916892B71F48091040190910501019662
:101220009093070180930601D0930103C0930003BC
:10123000EDCF809108039091090397FF06C082E0EB
:1012400090E09093090380930803809108039091A4
:101250000903039724F01092090310920803DF9109
:10126000CF910895AF92BF92CF92DF92EF92FF920B
:101270000F931F93CF93DF938091080390910903FD
:10128000892B09F057C1209100033091010380910F
:101290000603909107032817390751F08AE093E07D
:1012A0000E94D71360E070E082E293E00E94211276
:1012B00040E060E08AE093E00E94DE136CEC71E0B5
:1012C0008AE093E00E940F1741E060E08AE093E03B
:1012D0000E94DE1360E08AE093E00E94F0148091A7
:1012E000060390910703892B61F441E061E08AE0F5
:1012F00093E00E94DE136BED71E08AE093E00E94C0
:101300000F178091060390910703019761F441E064
:1013100061E08AE093E00E94DE1364EE71E08AE00F
:1013200093E00E940F1780910603909107030297A4
:1013300061F441E061E08AE093E00E94DE136FEE29
:1013400071E08AE093E00E940F178091C002882329
:1013500091F08091060390910703039761F441E0B7
:1013600061E08AE093E00E94DE1369EF71E08AE0B9
:1013700093E00E940F1780910603909107039093CA
:1013800001038093000380910601909107019093DF
:101390000501809304018EE00E946916892B51F4A7
:1013A000809100039091010301979093070380932C
:1013B0000603F1CF8FE00E946916892B51F48091CA
:1013C0000003909101030196909307038093060315
:1013D000F1CFCFEFDFEF80E10E946916892B71F426
:1013E00080910401909105010197909307018093EA
:1013F0000601D0930303C0930203EDCFC8E0D0E011
:1014000047E0A42EB12C06E010E0EE24E394F12C8A
:1014100062E0C62ED12C81E10E9469164091C00283
:10142000892B09F06BC020910401309105012F5FD9
:101430003F4F3093070120930601411101C3809172
:10144000C6029091C7029501281B390BC90137FDCF
:1014500001969595879501969093CF028093CE0241
:101460008091C4029091C5029501281B390BC901D6
:1014700037FD01969595879501969093CB028093C1
:10148000CA02809106039091070302969093C702C7
:101490008093C6029093C5028093C4021093E50224
:1014A0000093E4028091C6029091C7029501281B27
:1014B000390BC90137FD0196959587950196909353
:1014C000E3028093E202F092E902E092E802909354
:1014D000E7028093E602D092ED02C092EC021092F5
:1014E000D7021092D6021092D3021092D2028AE052
:1014F00093E00E94D7130E9427038DCF209106030B
:101500003091070337FF08C0242F30E02E5F3F4F94
:101510003093070320930603842F90E002962091D6
:101520000603309107038217930724F410920703F0
:10153000109206038091080390910903019709F026
:1015400052C12091000330910103809106039091D4
:1015500007032817390721F08AE093E00E94D71388
:1015600040E060E08AE093E00E94DE136CEC71E002
:101570008AE093E00E940F1741E060E08AE093E088
:101580000E94DE1360E08AE093E00E94F0148091F4
:10159000060390910703892B61F441E061E08AE042
:1015A00093E00E94DE136BED71E08AE093E00E940D
:1015B0000F178091060390910703019761F441E0B2
:1015C00061E08AE093E00E94DE1364EE71E08AE05D
:1015D00093E00E940F1780910603909107030297F2
:1015E00061F441E061E08AE093E00E94DE136FEE77
:1015F00071E08AE093E00E940F178091C002882377
:1016000091F08091060390910703039761F441E004
:1016100061E08AE093E00E94DE1369EF71E08AE006
:1016200093E00E940F178091060390910703909317
:10163000010380930003809106019091070190932C
:101640000501809304018EE00E946916892B51F4F4
:101650008091000390910103019790930703809379
:101660000603F1CF8FE00E946916892B51F4809117
:101670000003909101030196909307038093060362
:10168000F1CFCFEFDFEF80E10E946916892B71F473
:101690008091040190910501019790930701809337
:1016A0000601D0930303C0930203EDCF08E010E0DE
:1016B000C7E0D0E0CC24C394D12CA2E0EA2EF12CD8
:1016C00081E10E9469164091C002892B09F06FC028
:1016D00020910401309105012F5F3F4F30930701A6
:1016E000209306014111BDC18091C6029091C702AD
:1016F0009E01281B390BC90137FD019695958795E9
:1017000001969093CF028093CE028091C402909173
:10171000C5029E01281B390BC90137FD019695951D
:10172000879501969093CB028093CA02809106031D
:101730009091070302969093C7028093C6029093FC
:10174000C5028093C402D092E502C092E402809167
:10175000C6029091C7029E01281B390BC90137FDB3
:1017600001969595879501969093E3028093E20206
:10177000D092E902C092E8029093E7028093E602D9
:10178000F092ED02E092EC021092D7021092D60293
:101790001092D3021092D202D092F802C092F702B5
:1017A0008AE093E00E94D7130E94270389CF2091FB
:1017B00006033091070337FF08C0242F30E02E5F67
:1017C0003F4F3093070320930603842F90E0029647
:1017D00020910603309107038217930724F4109297
:1017E0000703109206038091080390910903029762
:1017F00009F048C120910003309101038091060354
:10180000909107032817390721F08AE093E00E949E
:10181000D71340E060E08AE093E00E94DE1360E0CE
:101820008AE093E00E94F0148091060390910703F0
:10183000892BF1F440E061E08AE093E00E94DE133E
:1018400065E072E08AE093E00E940F1741E060E0FB
:101850008AE093E00E94DE1360E172E08AE093E0A8
:101860000E940F1760E070E082E293E00E94211274
:101870008091060390910703019711F540E061E024
:101880008AE093E00E94DE1360E172E08AE093E078
:101890000E940F178091C102882391F041E060E01F
:1018A0008AE093E00E94DE136EE172E08AE093E04A
:1018B0000E940F1760E070E082E293E00E94211224
:1018C0008091060390910703029761F440E061E084
:1018D0008AE093E00E94DE136EE172E08AE093E01A
:1018E0000E940F17809106039091070390930103C4
:1018F0008093000380910601909107019093050168
:10190000809304018EE00E946916892B51F4809126
:1019100000039091010301979093070380930603BE
:10192000F1CF8FE00E946916892B51F4809100035A
:101930009091010301969093070380930603F1CFE2
:10194000CFEFDFEF80E10E946916892B71F480915F
:10195000040190910501019790930701809306017E
:10196000D0930303C0930203EDCF08E010E0C3E07F
:10197000D0E081E10E9469162091060330910703AF
:10198000892B09F043C080910401909105010196D3
:1019900090930701809306011093C7020093C6023B
:1019A0001093C5020093C4021092CF021092CE028F
:1019B0001092CB021092CA02D093E502C093E402C7
:1019C000D093E302C093E202D093E902C093E8020D
:1019D000D093E702C093E602D093ED02C093EC02ED
:1019E0002130310519F481E090E004C0232B49F443
:1019F00082E090E00E94D21890E0909305038093DB
:101A000004038AE093E00E94D713B3CF8091C10210
:101A100037FF08C0282F30E02F5F3F4F3093070378
:101A20002093060390E0019620910603309107036E
:101A3000821793073CF5109207031092060322C009
:101A40001092CF021092CE021092CB021092CA02D4
:101A5000D093C702C093C602D093C502C093C402FC
:101A60001DCD1092CF021092CE021092CB02109296
:101A7000CA021093C7020093C6021093C5020093D6
:101A8000C40261CEDF91CF911F910F91FF90EF9033
:101A9000DF90CF90BF90AF9008951F93CF93DF93C7
:101AA0008091080390910903892B09F0DBC02091F4
:101AB000FE023091FF0280910403909105032817E4
:101AC000390721F08AE093E00E94D71340E060E0FC
:101AD0008AE093E00E94DE1365E272E08AE093E020
:101AE0000E940F1741E060E08AE093E00E94DE135D
:101AF00060E08AE093E00E94F014809104039091EA
:101B00000503892B61F441E061E08AE093E00E94E3
:101B1000DE1361E372E08AE093E00E940F17809188
:101B2000040390910503019761F441E061E08AE0CC
:101B300093E00E94DE1366E372E08AE093E00E9485
:101B40000F178091040390910503029761F441E01F
:101B500061E08AE093E00E94DE136DE372E08AE0C8
:101B600093E00E940F17809104039091050303975F
:101B700061F441E061E08AE093E00E94DE1362E4F8
:101B800072E08AE093E00E940F1780910403909125
:101B900005039093FF028093FE02809106019091CD
:101BA000070190930501809304018EE00E9469165D
:101BB000892B51F48091FE029091FF02019790933E
:101BC000050380930403F1CF8FE00E946916892BEF
:101BD00051F48091FE029091FF02019690930503CB
:101BE00080930403F1CFCFEFDFEF80E10E9469160D
:101BF000892B91F4809104019091050101979093B4
:101C0000070180930601D0930103C09300038AE08B
:101C100093E00E94D713E9CFC1E0D0E081E10E94B8
:101C200069162091040330910503892B49F4309300
:101C3000F6022093F502D093FA02C093F902EECF98
:101C400037FF06C083E090E0909305038093040380
:101C50008091040390910503049724F010920503EA
:101C6000109204038091080390910903029709F0F0
:101C7000B4C28091060390910703892B09F083C0B9
:101C800040E060E08AE093E00E94DE136DE472E0E1
:101C90008AE093E00E940F1741E060E08AE093E061
:101CA0000E94DE1367E572E08AE093E00E940F175E
:101CB0006091DC027091DD024AE050E08AE093E03E
:101CC0000E94BB178091DC029091DD029093FC0290
:101CD0008093FB029093DB028093DA028EE00E94F5
:101CE0006916892BD1F42091BF028091DC0290917A
:101CF000DD0221116EC20B9784F08091DA0290917F
:101D0000DB029C01215031093093DD022093DC027B
:101D100002979093F1028093F0028FE00E9469167F
:101D2000892BA9F48091DC029091DD024E977CF41E
:101D30008091DA029091DB029C012F5F3F4F30933C
:101D4000DD022093DC029093F1028093F00281E1A6
:101D50000E946916892BA9F48091040190910501D4
:101D6000019790930701809306018FEF9FEF909367
:101D70000303809302036091DC0282E090E00E9402
:101D8000DA180E944C048091060390910703019792
:101D900009F0FCC02091FE023091FF028091040303
:101DA000909105032817390721F08AE093E00E94FB
:101DB000D71340E060E08AE093E00E94DE1362E621
:101DC00072E08AE093E00E940F1741E060E08AE051
:101DD00093E00E94DE1360E08AE093E00E94F0143A
:101DE0008091040390910503892B61F441E061E047
:101DF0008AE093E00E94DE1361E772E08AE093E0FC
:101E00000E940F178091040390910503019761F4DC
:101E100041E061E08AE093E00E94DE1364E772E053
:101E20008AE093E00E940F178091040390910503CC
:101E3000029761F441E061E08AE093E00E94DE13E2
:101E400068E772E08AE093E00E940F178091040334
:101E5000909105039093FF028093FE02809106010A
:101E60009091070190930501809304018EE00E94F8
:101E70006916892B51F48091FE029091FF0201971F
:101E80009093050380930403F1CF8FE00E946916BD
:101E9000892B51F48091FE029091FF02019690935C
:101EA000050380930403F1CFCFEFDFEF80E10E94C1
:101EB0006916892B21F58091040190910501019704
:101EC0009093070180930601D0930103C093000310
:101ED00010920703109206038AE093E00E94D71342
:101EE0006091040381E090E00E94DA18809104037D
:101EF000909105039093D9028093D802D7CFCFEF6A
:101F0000DFEF81E10E946916892B21F580910401A0
:101F10009091050101979093070180930601D0935A
:101F20000103C093000310920703109206038AE096
:101F300093E00E94D7136091040381E090E00E9437
:101F4000DA1880910403909105039093D90280934D
:101F5000D802D7CF80910403909105039093D902C2
:101F60008093D80297FF06C082E090E0909305032B
:101F7000809304038091040390910503039724F058
:101F800010920503109204030E944C0480910603F2
:101F900090910703029709F020C12091FE02309131
:101FA000FF0280910403909105032817390721F05F
:101FB0008AE093E00E94D71340E060E08AE093E07B
:101FC0000E94DE136FE772E08AE093E00E940F1731
:101FD00041E060E08AE093E00E94DE1360E08AE086
:101FE00093E00E94F0148091040390910503892BE3
:101FF000C9F441E061E08AE093E00E94DE13809141
:10200000C002882319F067E872E002C06DE872E050
:102010008AE093E00E940F1763E972E08AE093E0A0
:102020000E940F1780910403909105030197C9F452
:1020300041E061E08AE093E00E94DE138091BF02FC
:10204000882319F067E872E002C06DE872E08AE068
:1020500093E00E940F176EE972E08AE093E00E941D
:102060000F1780910403909105030297C9F441E092
:1020700061E08AE093E00E94DE138091BE02882333
:1020800019F067E872E002C06DE872E08AE093E060
:102090000E940F1768EA72E08AE093E00E940F172F
:1020A00080910403909105039093FF028093FE02B8
:1020B000809106019091070190930501809304019E
:1020C0008EE00E946916892B51F48091FE02909156
:1020D000FF0201979093050380930403F1CF8FE0F3
:1020E0000E946916892B51F48091FE029091FF02A3
:1020F00001969093050380930403F1CFCFEFDFEFB8
:1021000080E10E946916892B71F4809104019091FD
:10211000050101979093070180930601D093010375
:10212000C0930003EDCFCAE0D0E011E081E10E944E
:1021300069162091040330910503892BB9F5211507
:10214000310551F48091C002811103C01093C00287
:1021500018C01092C00215C02130310591F4809151
:10216000BF02811103C01093BF020BC01092BF02C7
:10217000D093DD02C093DC026AE082E090E00E942E
:10218000DA188091040390910503029749F4809135
:10219000BE02811103C01093BE0202C01092BE02A3
:1021A00081E10E946916892BD9F3C0CF37FF06C0A1
:1021B00082E090E0909305038093040380910403F0
:1021C0009091050303974CF01092050310920403BD
:1021D00004C002970CF091CDA0CDDF91CF911F915B
:1021E00008958091F7029091F8022091F9023091C0
:1021F000FA02820F931F892BC9F4809106019091F6
:102200000701019711F40E946708809106019091DF
:102210000701029711F40E94320980910601909102
:1022200007010397F1F60E944D0DDBCF08950E9440
:10223000D5071092D7021092D6021092D3021092B4
:10224000D2028FE00E946916892B41F480E10E943E
:102250006916892B19F481E08093C1028091C10233
:1022600081110CC08091DC029091DD020A9734F458
:102270008AE090E09093DD028093DC020E94F110EE
:102280008AE093E00E94D71368EE73E080E090E06C
:102290000E94631540E060E08AE093E00E94DE1354
:1022A00065E971E08AE093E00E940F176091D60221
:1022B0007091D7024AE050E08AE093E00E94BB1799
:1022C0006BE971E08AE093E00E940F176091D202FF
:1022D0007091D3024AE050E08AE093E00E94BB177D
:1022E00061E971E08AE093E00E940F178091F902A2
:1022F0009091FA02019719F40E946406F7CF809139
:10230000F7029091F802019719F40E94EA05F7CFBD
:1023100008958F929F92AF92BF92CF92DF92EF92E9
:10232000FF920F931F93CF93DF9300D0CDB7DEB70B
:102330008C0149832A83660F771FF801EA5AFF4F01
:10234000E080F180EE0CFF1CF801CF01801B910BA7
:102350008E159F0514F41192F8CF8981F801E60FCC
:10236000F71F81838A818083680184E5C80ED11CB0
:1023700060E0F60180810E9433165801F2E5AF0E4D
:10238000B11C480180E5880E911C1E141F047CF4CA
:10239000E1E0EE1AF108F801EE0DFF1D208141E0A9
:1023A000F5016081F40180810E949216EECF61E018
:1023B000F60180810F900F90DF91CF911F910F91C7
:1023C000FF90EF90DF90CF90BF90AF909F908F9055
:1023D0000C94331677FD10C0FC01EA5AFF4F2081A0
:1023E00031816217730744F4442311F020E001C0E7
:1023F00021E04CE00C948911089577FD0FC0FC0199
:10240000EA5AFF4F20813181621773073CF448304C
:10241000510520F4242F4BE00C948911089577FD89
:102420000FC0FC01EA5AFF4F208131816217730708
:102430003CF44031510520F4242F4AE00C948911DA
:102440000895CF92DF92EF92FF920F931F93CF9355
:10245000DF937C018B0177FD21C0FC01EA5AFF4F1D
:102460008081918168177907CCF46B0123E0CC0C53
:10247000DD1C2A95E1F7C0E0D0E0CE0CDF1CF601B0
:10248000EC0FFD1F108A4C2F4F5F20E0B801C701F1
:102490000E9489112196C830D10589F7DF91CF912B
:1024A0001F910F91FF90EF90DF90CF9008954F9282
:1024B0005F927F928F929F92AF92BF92CF92DF9264
:1024C000EF92FF920F931F93CF93DF931F92CDB79D
:1024D000DEB72C01762E7C0180E5E80EF11CF701B9
:1024E000608371834201F2E58F0E911CF4015183E8
:1024F00040836201F4E5CF0ED11CF60131832083C5
:10250000C8010197089710F008E010E05201F6E5C5
:10251000AF0EB11CF5011183008361E0872D798333
:102520000E94FA1561E0F40180810E94FA1561E0D1
:10253000F60180810E94FA1561E0F60180810E9417
:102540003316F70170827981718380E090E0F201A7
:10255000E80FF91F108A019680349105C1F700E059
:1025600010E0F5018081918108171907F4F420E04B
:102570004FE0B801C2010E94891147E050E0B80164
:10258000C2010E94FD1120E049E0B801C2010E9491
:102590008911B801C2010E94211241E0B801C201B3
:1025A0000E94EA110F5F1F4FDCCF0F90DF91CF9198
:1025B0001F910F91FF90EF90DF90CF90BF90AF9061
:1025C0009F908F907F905F904F9008950F93CF933F
:1025D000DF9377FD36C0FC01EA5AFF4F0190F0818E
:1025E000E02D6E177F076CF54830510550F5283007
:1025F000310538F5DB0133E0AA0FBB1F3A95E1F74F
:10260000E0E8F0E002C0F595E7952A95E2F7ED01E4
:10261000C40FD51FC80FD91F002319F028892E2BEE
:1026200003C0E09528892E23288BFC01EA0FFB1FAD
:10263000E40FF51F4F5F2089DF91CF910F910C942C
:102640008911DF91CF910F91089577FD1AC0FC0198
:10265000EA5AFF4F0190F081E02D6E177F078CF44E
:102660004830510570F4FB01A3E0EE0FFF1FAA955F
:10267000E1F7E80FF91FE40FF51F208B4F5F0C9473
:1026800089110895CF93DF93EC0160E08E810E9461
:10269000331681E090E00E948B1561E08E810E94EC
:1026A000331681E090E00E948B1560E08E810E94DD
:1026B000331684E690E0DF91CF910C948B15EF9266
:1026C000FF920F931F93CF93DF938C01C0E0D0E074
:1026D000E62EF12CB7010C2E02C0759567950A9471
:1026E000E2F76170F801EC0FFD1F87810E9433163D
:1026F0002196C430D10571F7C801DF91CF911F91A8
:102700000F91FF90EF900C944213EF92FF920F9372
:102710001F93CF93DF938C01C0E0D0E0E62EF12C25
:10272000B7010C2E02C0759567950A94E2F76170A7
:10273000F801EC0FFD1F87810E9433162196C830E7
:10274000D10571F7C801DF91CF911F910F91FF90D3
:10275000EF900C9442131F93CF93DF93EC01162F4D
:10276000642F8C810E9433168D818F3F19F060E0B9
:102770000E9433168F85612F84FF06C0CE01DF9142
:10278000CF911F910C94851370E084E07595679547
:102790008A95E1F7CE010E945F13612FCE01DF9190
:1027A000CF911F910C945F1340E00C94AB1361E048
:1027B0000E94D41380ED97E00C948B15443008F000
:1027C00043E0FC012389421710F04FEF420FFC0158
:1027D000E40FF11D2489260F2068622F0C94D41376
:1027E000FC016089262F2460208B6C600C94D4132C
:1027F0000F931F93CF93DF93EC01423018F08F8536
:1028000088608F874B8B1C8A80E48D8B6E8B70E089
:10281000605C7F4F6F8B222329F0413019F48F8544
:1028200084608F8761E08C810E94FA158D818F3FD3
:1028300019F061E00E94FA1561E08E810E94FA159C
:1028400000E010E08F8584FF03C088E090E002C0C4
:1028500084E090E00817190754F4FE01E00FF11F1F
:1028600061E087810E94FA150F5F1F4FEBCF80E573
:1028700093EC0E948B1560E08C810E94331660E01F
:102880008E810E9433168D818F3F19F060E00E9487
:1028900033166F8564FD1DC063E0CE010E945F1397
:1028A00084E991E10E948B1563E0CE010E945F13E1
:1028B00084E991E10E948B1563E0CE010E945F13D1
:1028C00086E990E00E948B1562E0CE010E945F13C2
:1028D00016C06062CE010E94D41384E991E10E9487
:1028E0008B156F856062CE010E94D41386E990E05B
:1028F0000E948B156F856062CE010E94D4136F8594
:102900006062CE010E94D41384E0888BCE010E94C5
:10291000F013CE010E94D71382E0898B66E0CE01CE
:10292000DF91CF911F910F910C94D413CF92EF921E
:102930000F93FC01138212828AEB92E091838083D1
:1029400064838FEF8583468327830087E186C28671
:102950001386148615861686178620E041E060E10E
:10296000CF010F91EF90CF900C94F813CF92DF929C
:10297000EF92FF920F931F93CF93DF9300D0CDB7C9
:10298000DEB78C01677088E0689FB0011124606435
:10299000C80149835A830E94D4134981C42E5A81A5
:1029A000D52EE12CF12CD6016D916D01D801ED9160
:1029B000FC910190F081E02DC8010995BFEFEB1A61
:1029C000FB0AE8E0EE16F10471F70F900F90DF912B
:1029D000CF911F910F91FF90EF90DF90CF900895CE
:1029E00041E00E94AB1381E090E008951F920F92A6
:1029F0000FB60F9211242F933F938F939F93AF9312
:102A0000BF9380917B0390917C03A0917D03B09153
:102A10007E0330917A0323E0230F2D3720F40196B3
:102A2000A11DB11D05C026E8230F0296A11DB11DF1
:102A300020937A0380937B0390937C03A0937D0380
:102A4000B0937E0380917F0390918003A0918103D6
:102A5000B09182030196A11DB11D80937F039093D5
:102A60008003A0938103B0938203BF91AF919F91A4
:102A70008F913F912F910F900FBE0F901F9018953F
:102A80003FB7F89480917F0390918003A0918103D8
:102A9000B091820326B5A89B05C02F3F19F001967F
:102AA000A11DB11D3FBF6627782F892F9A2F620F76
:102AB000711D811D911D42E0660F771F881F991FB0
:102AC0004A95D1F70895CF92DF92EF92FF92CF937C
:102AD000DF936B017C010E944015EB01C114D1040E
:102AE000E104F10489F00E9413180E9440156C1B48
:102AF0007D0B683E734090F381E0C81AD108E1086D
:102B0000F108C851DC4FEACFDF91CF91FF90EF90F1
:102B1000DF90CF9008958230910538F0880F991F8B
:102B2000880F991F05970197F1F70895789484B558
:102B3000826084BD84B5816084BD85B5826085BDB9
:102B400085B5816085BDEEE6F0E08081816080839F
:102B5000E1E8F0E010828081826080838081816082
:102B60008083E0E8F0E0808181608083E1EBF0E049
:102B7000808184608083E0EBF0E0808181608083ED
:102B8000EAE7F0E0808184608083808182608083D6
:102B90008081816080838081806880831092C10001
:102BA0000895833081F028F4813099F08230A1F0CB
:102BB00008958730A9F08830B9F08430D1F480913D
:102BC00080008F7D03C0809180008F77809380008C
:102BD000089584B58F7702C084B58F7D84BD089534
:102BE0008091B0008F7703C08091B0008F7D80937B
:102BF000B0000895CF93DF9390E0FC01E458FF4FBD
:102C00002491FC01E057FF4F8491882349F190E023
:102C1000880F991FFC01E854FF4FA591B49182558C
:102C20009F4FFC01C591D4919FB7611108C0F894E2
:102C30008C91209582238C93888182230AC06230F4
:102C400051F4F8948C91322F309583238C938881A2
:102C5000822B888304C0F8948C91822B8C939FBF25
:102C6000DF91CF9108950F931F93CF93DF931F921E
:102C7000CDB7DEB7282F30E0F901E859FF4F849136
:102C8000F901E458FF4F1491F901E057FF4F049107
:102C90000023C9F0882321F069830E94D11569813E
:102CA000E02FF0E0EE0FFF1FE255FF4FA591B4912A
:102CB0009FB7F8948C91611103C01095812301C0D6
:102CC000812B8C939FBF0F90DF91CF911F910F911C
:102CD0000895CF93DF93282F30E0F901E859FF4F93
:102CE0008491F901E458FF4FD491F901E057FF4F67
:102CF000C491CC2391F081110E94D115EC2FF0E00A
:102D0000EE0FFF1FEC55FF4FA591B4912C912D2391
:102D100081E090E021F480E002C080E090E0DF916B
:102D2000CF910895BF92CF92DF92EF92FF920F93CF
:102D30001F93CF93DF93C82ED62EB42EC7E0D0E0DA
:102D4000022F10E087E0E82EF12CB1100AC0F70145
:102D5000EC1BFD0BB80102C075956795EA95E2F78B
:102D600007C0B8010C2E02C0759567950A94E2F76A
:102D7000617077278C2D0E94331661E08D2D0E94A3
:102D8000331660E08D2D0E9433162197F0F6DF9107
:102D9000CF911F910F91FF90EF90DF90CF90BF9058
:102DA0000895CF92DF92EF92FF920F931F93CF93EC
:102DB000DF937C016A01EB0100E010E00C151D05BA
:102DC00071F06991D701ED91FC910190F081E02DB6
:102DD000C7010995892B19F00F5F1F4FEFCFC8016D
:102DE000DF91CF911F910F91FF90EF90DF90CF90E7
:102DF00008956115710581F0DB010D900020E9F760
:102E0000AD0141505109461B570BDC01ED91FC917E
:102E10000280F381E02D099480E090E008950C9405
:102E2000F916DC01ED91FC910190F081E02D0994FF
:102E30008F929F92AF92BF92CF92DF92EF92FF92CA
:102E40000F931F93CF93DF93CDB7DEB7A1970FB644
:102E5000F894DEBF0FBECDBF7C01C42EE52FCB01A1
:102E6000D22E19A221E02D1510F02AE0D22E8E01CB
:102E70000F5D1F4F8D2C912CA12CB12C6C2D7E2F12
:102E8000A50194010E9414188C2DD29E8019112442
:102E9000015011098A3014F4805D01C0895CF80189
:102EA0008083211531054105510521F0C22EE32F04
:102EB000CA01E4CFB801C7010E94F916A1960FB666
:102EC000F894DEBF0FBECDBFDF91CF911F910F9160
:102ED000FF90EF90DF90CF90BF90AF909F908F903A
:102EE0000895CF92DF92EF92FF920F931F93CF93AB
:102EF000DF93EC016A017B012115310579F4E8814A
:102F0000F9810190F081E02D642FDF91CF911F9125
:102F10000F91FF90EF90DF90CF9009942A30310508
:102F2000E9F477FF1AC06DE20E9411178C01442763
:102F30005527BA014C195D096E097F092AE0CE01B7
:102F40000E941817800F911FDF91CF911F910F9151
:102F5000FF90EF90DF90CF9008952AE0B701A6018F
:102F6000CE01DF91CF911F910F91FF90EF90DF90F5
:102F7000CF900C9418179A01AB01662757FD609506
:102F8000762F0C947117CF93DF9300D000D0CDB77C
:102F9000DEB79B01AC01611571058105910569F0F2
:102FA00069833A834B835C830E94C41829813A81E8
:102FB0004B815C810E94361803C060E070E0CB0159
:102FC0000F900F900F900F90DF91CF910895CF92B7
:102FD000DF92EF92FF926B017C0162177307840707
:102FE000950764F4CA01B9016C197D098E099F091E
:102FF0000E94C3176C0D7D1D8E1D9F1DFF90EF90CD
:10300000DF90CF90089508950E9496150E940318AE
:103010000E948C00C0E0D0E00E9417112097E1F3DD
:103020000E940000F9CF0895A1E21A2EAA1BBB1B33
:10303000FD010DC0AA1FBB1FEE1FFF1FA217B30784
:10304000E407F50720F0A21BB30BE40BF50B661F9A
:10305000771F881F991F1A9469F76095709580955E
:1030600090959B01AC01BD01CF010895052E97FB02
:103070001EF400940E944D1857FD07D00E941418AA
:1030800007FC03D04EF40C944D18509540953095A4
:1030900021953F4F4F4F5F4F0895909580957095C4
:1030A00061957F4F8F4F9F4F08950E946618A59F8F
:1030B000900DB49F900DA49F800D911D1124089533
:1030C000EE0FFF1F0590F491E02D0994A29FB0012F
:1030D000B39FC001A39F700D811D1124911DB29F4C
:1030E000700D811D1124911D08958F929F92AF92B2
:1030F000BF92CF92DF92EF92FF92CF93DF93EC01DA
:10310000688179818A819B816115710581059105AD
:1031100021F464E279ED8BE597E02DE133EF41E0B6
:1031200050E00E94361849015A019B01AC01A7EA00
:10313000B1E40E9455186B017C01ACEEB4EFA5011F
:1031400094010E94EB18C60ED71EE81EF91EF7FE6A
:1031500006C081E0C81AD108E10880E8F80AC882F0
:10316000D982EA82FB82C701B6019F77DF91CF91B6
:10317000FF90EF90DF90CF90BF90AF909F908F9097
:1031800008950E947518089580E091E00E947518D6
:103190000895609300017093010180930201909360
:1031A00003010895F999FECF92BD81BDF89A992740
:1031B00080B50895262FF999FECF1FBA92BD81BD23
:1031C00020BD0FB6F894FA9AF99A0FBE01960895A9
:1031D000B7FF0C9455180E945518821B930B089545
:0431E000F894FFCF91
:1031E40001000000010001000004061F1F06040086
:1031F4001A00190018001700160015001400130017
:103204001200110010000F000E000D000C000B0046
:103214000A00090008000700060005000400030076
:10322400020001000000FFFFFEFFFDFFFCFFFBFFAB
:10323400FAFFF9FFF8FFF7FFF6FFF5FFF4FFF3FFDE
:10324400F2FFF1FFF0FFEFFFEEFFEDFFECFFEBFF0E
:10325400EAFFE9FF7E484878003C42423C007E3069
:103264000C7E003C424A2C00506175736520002D91
:103274000020503200202050312000202D2000500A
:10328400312057494E53210050322057494E532183
:10329400003120706C61796572003220706C617944
:1032A400657273004F7074696F6E7300506C617453
:1032B400666F726D2073697A653A0054696E79207D
:1032C400283229004E6F726D616C20283329004C1E
:1032D400617267652028342900476967616E74202C
:1032E400283821290042616C6C2073706565640084
:1032F40042616C6C20547261636B696E6700436851
:10330400656174730043707520736B696C6C733AF8
:103314000045617379004E6F726D616C0048617293
:103324006400496D706F737369626C650055702039
:103334002620446F776E0056656C6F636974793A22
:10334400200042616C6C20747261636B696E673A31
:10335400004E6F0059657300446F75626C650043DD
:1033640068656174733A00284F4E292000284F463F
:103374004629004C6F6F7020737475636B004F7631
:103384006572636C6F636B00435055204475656CC4
:0E339400205B31505D0000000000F014D116E7
:00000001FF
